S02000004156522D44415F4144435F45565359535F4578616D706C652E737265631E
S11300000C9476000C9488000C9488000C9488005E
S11300100C9488000C9488000C9488000C9488003C
S11300200C9488000C9488000C9488000C9488002C
S11300300C9488000C9488000C9488000C9488001C
S11300400C9488000C9488000C9488000C9488000C
S11300500C9488000C9488000C9488000C948800FC
S11300600C948A000C9488000C9488000C948800EA
S11300700C9488000C9488000C9488000C948800DC
S11300800C9488000C9488000C9488000C948800CC
S11300900C9488000C9488000C9488000C948800BC
S11300A00C9488000C9488000C9488000C948800AC
S11300B00C9488000C9488000C9488000C9488009C
S11300C00C9488000C9488000C9488000C9488008C
S11300D00C9488000C9488000C9488000C9488007C
S11300E00C9488000C9488000C94880011241FBE82
S11300F0CFEFCDBFDFE7DEBF20E4A0E0B0E401C076
S11301001D92A230B207E1F70E94AD000C94CB001F
S11301100C9400001F920F920FB60F9211240BB68D
S11301200F928F939F93EF93FF93E0E4F4E0878122
S1130130806487838091100690911106809300401B
S113014090930140FF91EF919F918F910F900BBE7F
S11301500F900FBE0F901F90189581E88093A00018
S1130160E0E0F6E01282108681E083878487808352
S1130170E0E4F4E082818068828387898860878BE9
S1130180818180648183E0E0F2E087E4838B84E012
S10D019084A77894FFCFF894FFCF02
S9030000FC
